:02000002D0002C
:1040000000400D00185B0D00000006000D000501CA
:084010000401E80500000000B6
:044018002C560D0015
:10401C0009480A49884208B505D0094A824202D0AB
:10402C00121A01F029FA0748074A0021121A01F066
:10403C002EFA014808BD00BF38E40320845A0D0055
:10404C00A4E40320A4E40320F0E7032070B500F0FF
:10405C005BFD074C074BE41AA40800251E46A5423D
:10406C0004D056F8253098470135F8E770BD00BFED
:10407C00745A0D003C5A0D0000F02EB808B500F033
:10408C0047F8BDE8084000F001BD00F0F9B900F0B8
:10409C00FFB900F0FDB90078B0FA80F04009704724
:1040AC0001230370704708B500F0B8FF01460220E9
:1040BC0001F041F808BD00001FB50649684600F044
:1040CC0080FF6846FFF7EFFF684600F033FF05B04E
:1040DC005DF804FB40560D0010B5084C0121022080
:1040EC0001F018F8064A0749204600F09AFC2046D1
:1040FC00054A0649BDE8104000F093BC034A0D0088
:10410C0042560D00B3400D004E560D00C5400D003B
:10411C00704700F0F9B8000008B5024B1B681B682B
:10412C00019308BD4C02030008B5024B1B681B69C8
:10413C00019308BD4C02030008B5024B1B685B6978
:10414C00019308BD4C02030008B5024B1B689B6928
:10415C00019308BD4C02030008B5024B1B68DB69D8
:10416C00019308BD4C02030008B5024B1B681B6A87
:10417C00019308BD4C02030008B5024B1B681B6A77
:10418C00019308BD2802030008B5024B1B685B6A4B
:10419C00019308BD2802030008B5024B1B689B6AFB
:1041AC00019308BD2802030008B5024B1B68DB6AAB
:1041BC00019308BD2802030008B5024B1B681B6B5A
:1041CC00019308BD2802030008B5024B1B685B6B0A
:1041DC00019308BD2802030008B5024B1B681B6C39
:1041EC00019308BD2802030008B5024B1B681B682D
:1041FC00019308BD3C02030008B5024B1B68DB6849
:10420C00019308BD3C02030008B5024B1B681B69F7
:10421C00019308BD3C02030008B5024B1B685B69A7
:10422C00019308BD3C02030008B5024B1B689B6957
:10423C00019308BD3C02030008B5024B1B68DB6907
:10424C00019308BD3C02030008B5024B1B681B6AB6
:10425C00019308BD3C02030008B5024B1B689B6A26
:10426C00019308BD3C02030008B5024B1B685B6957
:10427C00019308BD6402030008B5024B1B689B68E0
:10428C00019308BD4802030008B5024B1B681B696B
:10429C00019308BD4802030008B5024B1B685B691B
:1042AC00019308BD4802030008B5024B1B685B6C08
:1042BC00019308BD4802030008B5024B1B689B6CB8
:1042CC00019308BD4802030008B5024B1B685B68EC
:1042DC00019308BD1802030008B5024B1B685B690B
:1042EC00019308BD1802030008B5024B1B68DB697B
:1042FC00019308BD3002030008B5024B1B681B6A12
:10430C00019308BD3002030008B5024B1B681B6803
:10431C00019308BD2C02030008B5024B1B685B68B7
:10432C00019308BD2C02030008B5024B1B689B6867
:10433C00019308BD2C02030008B5024B1B68DB6817
:10434C00019308BD2C02030008B5024B1B689B6A45
:10435C00019308BD2C02030008B5024B1B689B6F30
:10436C00019308BD2C02030008B5024B1B689B6827
:10437C00019308BD6802030008B5024B1B68DB689B
:10438C00019308BD6802030008B5024B1B685B680B
:10439C00019308BD4402030008B5024B1B68DB6B9C
:1043AC00019308BD4402030008B5024B1B685B680F
:1043BC00019308BD4002030008B5024B1B689B68C3
:1043CC00019308BD4002030008B5024B1B68DB6873
:1043DC00019308BD4002030008B5024B1B681B6922
:1043EC00019308BD4002030008B5024B1B685B69D2
:1043FC00019308BD4002030008B5024B1B689B6982
:10440C00019308BD4002030008B5024B1B68DB6931
:10441C00019308BD4002030008B5024B1B681B6AE0
:10442C00019308BD4002030008B5024B1B681B6BCF
:10443C00019308BD4002030008B5024B1B685B6B7F
:10444C00019308BD4002030008B5024B1B685B6872
:10445C00019308BD2002030008B5034B1B68D3F879
:10446C008830019308BD00002002030008B5034BFF
:10447C001B68D3F89430019308BD000020020300A0
:10448C0008B5024B1B681B68019308BD1C02030096
:10449C0008B5024B1B685B68019308BD1C02030046
:1044AC0008B5024B1B689B68019308BD1C020300F6
:1044BC0000231A464068FFF777BF002202214068AC
:1044CC00FFF782BF002211464068FFF775BF00223C
:1044DC0011464068FFF780BF00231A461946406812
:1044EC00FFF782BF00231A4619464068FFF784BFC6
:1044FC00002281F001014068FFF786BF002240686E
:10450C00FFF792BF002211464068FFF795BF0022CB
:10451C0011464068FFF780BF2DE9F043002495B0A9
:10452C0016460D46074600F025FA214620220CA817
:10453C00009400F0ACFF40230C9321466B460CAA70
:10454C003046FFF719FF0446002844D102460121EA
:10455C006868FFF741FF0221804622466868FFF732
:10456C003BFF009E81462146002E34D0002932D1DB
:10457C007368022B02D00A2B09D02AE0B8F1000F85
:10458C0027D071693846043100F021FA20E0B9F1E6
:10459C00000F1ED07469112201A800F078FF0623C9
:1045AC008DF8143001AD04F10803183418685968FB
:1045BC002A4603C20833A3421546F7D101A906A81F
:1045CC0007AD00F0E5F90FCD3C1D0FC42B6823702F
:1045DC000121F669C8E70098FFF7C6FE384615B00A
:1045EC00BDE8F083024B034A1A6000225A60704700
:1045FC00A8E4032064560D00002211464068FFF722
:10460C000BBF002211464068FFF716BF002240681E
:10461C00FFF70ABF002281F001014068FFF7F4BEEA
:10462C0000231A4601214068FFF7E6BE00231A4614
:10463C0019464068FFF7D8BE002211464068FFF7C4
:10464C00CBBE002211464068FFF7B6BE0022022105
:10465C004068FFF7B9BE00231A464068FFF7A4BEB6
:10466C0038B5054688B104684CB1A3681BB1032268
:10467C002146204698471021204600F08FFD284601
:10468C001421BDE8384000F089BD38BD10B1036875
:10469C005B681847704710B503680446BBB158688F
:1046AC00FFF7EAFD78B923685A7C12B95868FFF70E
:1046BC00EBFD23685868FFF7EFFD206800232360AB
:1046CC0028B1FFF7CDFF206808B1FFF7C9FF2046DE
:1046DC0010BD38B50446D0F8C40108B1FFF7D9FCB9
:1046EC00D4F8C00108B1FFF7E7FDD4F8BC5135B1DF
:1046FC002846FFF7D0FF0421284600F04FFD206824
:10470C0008B1FFF7C3FF204638BD000010B5044BBD
:10471C00044640F8083BFFF7DCFF204610BD00BF05
:10472C0098560D0038B50E4C0E4B23600025022315
:10473C0004F5E4706360A560C4F8C451C4F8C851B2
:10474C00FFF7B2FD084BC4F8CC5184F8D05123606C
:10475C002046064A0649BDE8384000F012BD00BFAD
:10476C00B0E4032064560D0098560D00A4E4032019
:10477C0019470D007047F8B5064615460C468F18BC
:10478C00BC4206D0336814F8011B9B68304698472E
:10479C00F6E72846F8BD0022007CFFF7EDBC0021AF
:1047AC00007CFFF7F1BC0021007CFFF7F5BC002179
:1047BC00007CFFF7F9BC0021007CFFF7FDBC10B5B5
:1047CC001421044600F0EAFC204610BD10B5044646
:1047DC00002363604FF47A73A360044B2174084682
:1047EC0023601146FFF7F8FC204610BDCC560D0097
:1047FC000021007CFFF7E8BC41747047704708B596
:10480C000021007CFFF7A0FC30EA200028BF4FF00D
:10481C00FF3008BD08B50121007CFFF795FC30EA9C
:10482C00200028BF4FF0FF3008BD08B5007CFFF713
:10483C0083FC20EAE07008BD08B5007CFFF774FC2F
:10484C0020EAE07008BD007CFFF78EBC10B5142187
:10485C00044600F0A3FC204610BD38B50446007C8D
:10486C000D46FFF769FC002801DC607C28B1294665
:10487C00207CFFF771FC20EAE07038BD10B50446CF
:10488C00002363604FF47A73A360054B236001230C
:10489C000846217463741146FFF73EFC204610BD98
:1048AC00F4560D0010B514220446002100F0EFFD63
:1048BC00204610BD30B50E4D87B001A8FFF7F2FFB2
:1048CC00296811F0010410D12846FFF7E4FB60B110
:1048DC0001AA21460748FFF7D1FF2846FFF7E0FB66
:1048EC00054A0649034800F04CFC024807B030BDAD
:1048FC0084E6032088E60320A4E4032009480D0085
:10490C00704710B51821044600F048FC204610BD35
:10491C00F0B5037D062B8DB00E4600F104074FF069
:10492C00000402D000F1080518E00CAD394605F87A
:10493C00304D2F232A460A20FFF796FC284600F01C
:10494C00D7FD33680246DB682946304698470FE0AE
:10495C0024B12E21304600F09BF9044415F8011DBA
:10496C000A22304600F097F9BD420444F0D12046AB
:10497C000DB0F0BD10B5054B0446112240F8043BB8
:10498C00002100F084FD204610BD00BF24570D000F
:10499C000346074A10B543F8042B01F1100251F8F5
:1049AC00044B43F8044B9142F9D10A781A7010BDAC
:1049BC0024570D0010B59DF8084044EA032343EA40
:1049CC00024242EA016104234160037510BD37B510
:1049DC000D788B784A78C97800912946FFF7EAFF61
:1049EC0003B030BD10B58368044613B103220146F1
:1049FC009847204610BD10B588B00446684600F0B4
:104A0C00E0FA694604A800F0FEFA04A8A0470446A0
:104A1C0004A800F08FFA684600F08CFA204608B023
:104A2C0010BDF0B5102485B007460E461546002182
:104A3C002246684600F02BFD002269461046ADF870
:104A4C000040029703960195FFF79EFC05B0F0BD60
:104A5C0008B50C4B33B1FFF72DFF03681B69984762
:104A6C00002809DC084B63B100F0AEF903681B6940
:104A7C009847002803DC08BDAFF30080F2E7AFF3E2
:104A8C00008008BD000000000000000008B5FFF722
:104A9C00DFFFFFF721FC014B186008BD3CE703204A
:104AAC000248034A0349121A00F0E6BC00F4032042
:104ABC0004F40320805A0D0007B5002300931A4616
:104ACC006FF07701FFF7D2FC03B05DF804FB000038
:104ADC0007B543880A2B08D0502B09D1094B1B680A
:104AEC003BB103B05DF804EB1847FFF7E5FF06E0B8
:104AFC00002300931A466FF07701FFF7B7FC03B061
:104B0C005DF804FB9CE6032038B5104C104D23686F
:104B1C00AB42104B0CBF012200221A7002D0FFF7DF
:104B2C00BFFF2560FFF7D0FB044600F0B9FC0A4B31
:104B3C0013B12046AFF3008000210748FFF72CFC8F
:104B4C0000210648BDE83840FFF786BC00F403207E
:104B5C001E1C279AA0E6032000000000DD4A0D0071
:104B6C00002211464068FFF737BC0022114640680E
:104B7C00FFF752BC002211464068FFF75DBC0022D3
:104B8C004068FFF751BC002281F001014068FFF73B
:104B9C003BBC00231A4619464068FFF72DBC002386
:104BAC001A4619464068FFF71FBC002211464068A0
:104BBC00FFF702BC002202214068FFF705BC00236E
:104BCC001A464068FFF7F0BB38B5084C28252A4632
:104BDC000021204600F05BFC4FF0FF336360044B78
:104BEC00258004225A60034A1A6038BDACE60320C3
:104BFC00A4E6032038570D0010B50446FFF7F2FE6B
:104C0C00204610BD0348044A04490023836000F089
:104C1C00B8BA00BFD4E60320A4E40320054C0D0071
:104C2C00024B1A68024B1A60704700BF38E403202D
:104C3C00E4E60320014B024A1A607047E8E60320C1
:104C4C0000580D00F8B506460D468F180024BD42DD
:104C5C000CD0336815F8011B9B6830469847002828
:104C6C0001DB0444F3E7002C08BF04462046F8BDE2
:104C7C0070B505460C46084649B100F039FC2B6866
:104C8C00024621462846DB68BDE87040184770BDD7
:104C9C0003689B68184730B58BB00B4600218DF824
:104CAC002410012A98BF0A220DF12304B3FBF2F55C
:104CBC0005FB123303F0FF03092B94BF303337335A
:104CCC00DBB2214604F801392B46002DEED1FFF75B
:104CDC00CFFF0BB030BD10B50446006808B1FFF72C
:104CEC00EBFA204610BD000010B5064C0023204600
:104CFC002360FFF7D9FA2046034A0449BDE8104067
:104D0C0000F03FBAECE60320A4E40320E34C0D00D2
:104D1C0070474174704708B5007CFFF79DFA20EA94
:104D2C00E07008BD08B5007CFFF76EFA20EAE07071
:104D3C0008BD08B5007CFFF777FA30EA200028BFE1
:104D4C004FF0FF3008BD08B5007CFFF765FA30EA7C
:104D5C00200028BF4FF0FF3008BD007CFFF76CBA75
:104D6C0010B51421044600F019FA204610BD70B598
:104D7C00457C04460E4625B9007CFFF76DFA0028E9
:104D8C0005DD3146207CBDE87040FFF735BA28467A
:104D9C0070BD000010B50446084611460022626042
:104DAC004FF47A72A260054A226001222074627468
:104DBC001A46FFF719FA204610BD00BF78580D00AF
:104DCC00007CFFF741BA0000F8B5194C25684DB9C5
:104DDC008420FFF75AF9064618B18422294600F0C0
:104DEC0056FB2660134D2E684EB98420FFF74DF903
:104DFC00074618B18422314600F049FB2F600E4F54
:104E0C00396811F0010611D13846FFF744F968B141
:104E1C0022682B6809483146FFF7BCFF3846FFF77C
:104E2C003FF9074A0749054800F0ABF90348F8BDBC
:104E3C000CE7032004E7032008E70320F0E6032037
:104E4C00A4E403201D4D0D0010B50446006818B1F4
:104E5C00FFF71EFB0023236010BD10B50446FFF7BF
:104E6C00F3FF204610BD000010B5094C00204FF692
:104E7C00FF732060A080A07120816381FFF7E4FAAA
:104E8C002046044A0449BDE8104000F07AB900BF3E
:104E9C0010E70320A4E40320674E0D0010B5044670
:104EAC0001700846FFF720FA00236360204610BD0E
:104EBC000078FFF721BA002211464068FFF7ACBA20
:104ECC00002211464068FFF7B7BA00224068FFF78E
:104EDC00ABBA002281F001014068FFF795BA0023BC
:104EEC001A4619464068FFF787BA00231A46194636
:104EFC004068FFF779BA002211464068FFF76CBA98
:104F0C00002211464068FFF757BA00220221406880
:104F1C00FFF75ABA00231A464068FFF745BA00005B
:104F2C00024B03225A60024A1A6070471CE70320A6
:104F3C00A8580D0010B504460068FFF7A9FA2046E2
:104F4C0010BD10B50446006808B1FFF7A1FA0023A4
:104F5C002360A360636010BD38B504460D4600683D
:104F6C000131FFF79DFA10B184E82100012038BD12
:104F7C0010B50368044613B143688B4207D2204630
:104F8C00FFF7EAFF20B1A3680BB922681370012068
:104F9C0010BD70B50E46114604461546FFF7E8FFE6
:104FAC0018B92046FFF7CDFF09E02A463146A56027
:104FBC00206800F061FA2268A3680021D1542046D1
:104FCC0070BD38B5002304460360436083600373EF
:104FDC000D4639B1084600F08BFA294602462046A8
:104FEC00FFF7D7FF204638BD884210B50B46044664
:104FFC0007D0096819B19A68FFF7CBFF01E0FFF7FA
:10500C00A0FF204610BD10B500230446036043608A
:10501C0083600373FFF7E8FF204610BD006808B1FA
:10502C0000F018BA7047000070B5044614252A46E3
:10503C00094E002100F02BFA258020253146A56071
:10504C002561284600F0ACF831466060284600F037
:10505C00A7F8E060204670BDD4580D0030B50E4D59
:10506C00296811F0010487B013D12846FFF713F813
:10507C0078B101A8FFF7D8FF01AA21460748FFF72E
:10508C00A5FB2846FFF70CF8054A0649034800F033
:10509C0078F8024807B030BD24E7032028E7032046
:1050AC00A4E4032081470D0070B5184E316811F04F
:1050BC00010504460AD13046FEF7EDFF30B1294612
:1050CC001348FFF7EBFE3046FEF7EAFF1048FFF7F8
:1050DC00EFFE28B1A4F10B03022B01D8002070BD08
:1050EC00FFF7BCFFFFF784FB08B1012CF6D9FFF7E3
:1050FC006BFEFFF765FE18B1A4F10903012BEDD986
:10510C00232C8CBF0020012070BD00BF40E7032082
:10511C0044E70320232838B504460D460AD8FF2956
:10512C0008D0FFF7C1FF28B129462046BDE838401A
:10513C00FFF7FAB838BD38B504460D46FFF7B4FF93
:10514C00F0B104212046FFF7E7F8042805D1A9B2F5
:10515C002046BDE83840FFF7F7B802212046FFF79C
:10516C00DBF802280CD12046FFF7E6F8012801D025
:10517C00042805D129462046BDE83840FFF7ECB895
:10518C0038BD0B460146184600F068B9024B18684A
:10519C00BFF35F8F704700BF4CE70320FEF777BF6C
:1051AC0000F000B810B5002814BF044601242046B6
:1051BC00FFF766F920B9FFF7E9FF08B18047F6E77A
:1051CC0010BD0000184B1A68D1075CBF01221A6091
:1051DC00164B1A68D2075CBF01221A60144B1A686E
:1051EC00D0075CBF01221A60124B1A68D1075CBF52
:1051FC0001221A60104B1A68D2075CBF01221A6098
:10520C000E4B1A68D0075CBF01221A600C4B1A684F
:10521C00D1075CBF01221A600A4B1A68D2075CBF27
:10522C0001221A60704700BF6CE7032068E7032077
:10523C0064E7032060E703205CE7032058E70320C2
:10524C0054E7032050E70320244B1A68D0075CBFB7
:10525C0001221A60224B1A68D1075CBF01221A6026
:10526C00204B1A68D2075CBF01221A601E4B1A68C9
:10527C00D0075CBF01221A601C4B1A68D1075CBFB7
:10528C0001221A601A4B1A68D2075CBF01221A60FD
:10529C00184B1A68D0075CBF01221A60164B1A68AB
:1052AC00D1075CBF01221A60144B1A68D2075CBF8D
:1052BC0001221A60124B1A68D0075CBF01221A60D7
:1052CC00104B1A68D1075CBF01221A600E4B1A688A
:1052DC00D2075CBF01221A60704700BF9CE7032015
:1052EC0098E7032094E7032090E703208CE7032042
:1052FC0088E7032084E7032080E703207CE7032072
:10530C0078E7032074E7032070E70320244B1A6826
:10531C00D0075CBF01221A60224B1A68D1075CBF10
:10532C0001221A60204B1A68D2075CBF01221A6056
:10533C001E4B1A68D0075CBF01221A601C4B1A68FE
:10534C00D1075CBF01221A601A4B1A68D2075CBFE6
:10535C0001221A60184B1A68D0075CBF01221A6030
:10536C00164B1A68D1075CBF01221A60144B1A68DD
:10537C00D2075CBF01221A60124B1A68D0075CBFBF
:10538C0001221A60104B1A68D1075CBF01221A6007
:10539C000E4B1A68D2075CBF01221A60704700BF1F
:1053AC00CCE70320C8E70320C4E70320C0E70320B1
:1053BC00BCE70320B8E70320B4E70320B0E70320E1
:1053CC00ACE70320A8E70320A4E70320A0E7032011
:1053DC00184B1A68D1075CBF01221A60164B1A6869
:1053EC00D2075CBF01221A60144B1A68D0075CBF4D
:1053FC0001221A60124B1A68D1075CBF01221A6095
:10540C00104B1A68D2075CBF01221A600E4B1A6847
:10541C00D0075CBF01221A600C4B1A68D1075CBF25
:10542C0001221A600A4B1A68D2075CBF01221A606B
:10543C00704700BFECE70320E8E70320E4E7032014
:10544C00E0E70320DCE70320D8E70320D4E70320C0
:10545C00D0E703200A22002100F0D8B810B5054C83
:10546C0013462CB10A4601460220AFF3008010BD52
:10547C00204610BD0000000010B5431E0A449142A6
:10548C0004D011F8014B03F8014FF8E710BD0244AA
:10549C000346934202D003F8011BFAE77047000061
:1054AC0038B5124B1C68A36B0546D3B91820FEF710
:1054BC00E7FF43F20E33A06303804AF6CD334380FB
:1054CC0041F2342383804EF26D63C3804DF6EC635E
:1054DC000381052343810B23838101220023C0E92F
:1054EC000423A36B00221D615A6138BDA0E4032084
:1054FC00034613F8012B002AFBD1181A0138704708
:10550C002DE9F04780464048D0F800900F463D46C4
:10551C0015F8014B09EB0400407800F0080000F08E
:10552C00FF0608B12F46F2E72D2C03D1BD1C7C7869
:10553C00012603E02B2C04BF7C78BD1C13B1102B6F
:10554C000AD15BE0302C57D1287800F0DF005828C6
:10555C004DD16C7810230235002E14BF4FF0004C47
:10556C006FF0004C0027BCFBF3FA384603FB1ACC57
:10557C0009EB040E9EF801E01EF0040F01D0303C44
:10558C000BE01EF0030E1BD0BEF1010F0CBF4FF051
:10559C00370E4FF0570ECEEB0404A34210DDB7F1DB
:1055AC00FF3F0AD0504506D801D1644503DC03FB0C
:1055BC000040012701E04FF0FF3715F8014BD7E70A
:1055CC007B1C0CD1002E4FF0220314BF4FF0004077
:1055DC006FF00040C8F800302AB9BDE8F08706B17A
:1055EC00404272B107B1691E1160BDE8F0873024EA
:1055FC00002BB1D10823AFE70A23ADE7302CA3D0A1
:10560C00AAE7BDE8F08700BF3CE4032013460A4636
:10561C00014602480068FFF773BF00BFA0E40320F7
:10562C001D400D0059400D0085400D0089400D00B6
:10563C000000000030006368616E6765537065653B
:10564C0064006B696C6C53776974636800000000CC
:10565C000000000000000000BD440D00C7440D0018
:10566C00D1440D00DB440D00E5440D00F1440D0068
:10567C00FD440D0009450D0011450D001B450D00A5
:10568C0025450D00000000000000000063460D00E1
:10569C0059460D004F460D0045460D0039460D008C
:1056AC002D460D0021460D0019460D000F460D002C
:1056BC0005460D0025450D0000000000000000000F
:1056CC0081470D00CB470D00A3470D0083470D000C
:1056DC00AB470D00B3470D00BB470D00C3470D0092
:1056EC00000000000000000009480D0059480D00A2
:1056FC0067480D00514C0D0045480D000B480D003E
:10570C0021480D0053480D0037480D0005480D0089
:10571C0000000000000000001D490D000D490D00A7
:10572C000F490D000000000000000000CB4B0D00E5
:10573C00C14B0D00B74B0D006D4B0D00AB4B0D006D
:10574C009F4B0D00934B0D008B4B0D00814B0D00AF
:10575C00774B0D0025450D005A00252B3033643A4C
:10576C00253032750025592D256D2D25645425487D
:10577C003A254D3A2553257A0061736374696D653A
:10578C0000626175640053657269616C00536572E7
:10579C0069616C31007479706500706172616D00C3
:1057AC00636D6400696400686E64007374726D00EC
:1057BC0066696C74006C766C0061646448616E643C
:1057CC006C65720072656D6F766548616E646C65B0
:1057DC007200656E756D48616E646C657273004A1B
:1057EC00534F4E53747265616D4C6F6748616E64B4
:1057FC006C65720061707000253031307520005D71
:10580C0020002564002C200028293A2000205B0071
:10581C00636F6465203D20002569006465746169CF
:10582C006C73203D20000D0A0066006C6E00666EE5
:10583C0000636F64650064657461696C006E6F6E03
:10584C006500747261636500696E666F00776172E2
:10585C006E006572726F720070616E696300616CCC
:10586C006C00000000000000000000001D4D0D0049
:10587C006D4D0D007B4D0D00514C0D00314D0D004B
:10588C00534D0D003F4D0D00674D0D001F4D0D008C
:10589C00234D0D000000000000000000214F0D0002
:1058AC00174F0D000D4F0D00034F0D00F74E0D005F
:1058BC00EB4E0D00DF4E0D00D74E0D00CD4E0D0002
:1058CC00C34E0D0025450D00000020202020202077
:1058DC002020202828282828202020202020202094
:1058EC002020202020202020202088101010101094
:1058FC0010101010101010101010040404040404E4
:10590C0004040404101010101010104141414141C6
:10591C00410101010101010101010101010101012B
:10592C0001010101011010101010104242424242BC
:10593C0042020202020202020202020202020202FB
:10594C0002020202021010101020000000000000E1
:10595C00000000000000000000000000000000003B
:10596C00000000000000000000000000000000002B
:10597C00000000000000000000000000000000001B
:10598C00000000000000000000000000000000000B
:10599C0000000000000000000000000000000000FB
:1059AC0000000000000000000000000000000000EB
:1059BC0000000000000000000000000000000000DB
:1059CC0000000000000000000000000000000000CB
:1059DC0000000000000000000000000000000000BB
:1059EC0000000000000000000000000000000000AB
:1059FC00000000000000000000000000000000009B
:105A0C00000000000000000000000000000000008A
:105A1C00000000000000000000000000000000007A
:105A2C000000000000000000000000004300000027
:105A3C001F410D00F1450D0031470D00D54B0D00F8
:105A4C00114C0D002D4C0D00414C0D00F54C0D0072
:105A5C00754E0D002D4F0D00D1510D0055520D00FE
:105A6C0019530D00DD530D00000000000000000074
:045A7C000000000026
:045A80000000000022
:105A840085570D00D5580D0000000000D8590D00B1
:105A9400F8590D00185A0D00000000000000000025
:105AA4000000000000000000385A0D000000000053
:105AB40000000000000000000000000000000000E2
:105AC40000000000000000000000000000000000D2
:105AD40000000000000000000000000000000000C2
:0C5AE400000000000000000040E403206F
:105AF000FFFFFFFF00000102030405060708090A73
:105B00000B0C0D0E0F101112131415161718191A6D
:085B10001B1C1D1E1F202800B4
:045B18007856341275
:04000003D000401CCD
:00000001FF
